{
  "contractName": "SupplyChain",
  "abi": [
    {
      "inputs": [],
      "payable": true,
      "stateMutability": "payable",
      "type": "constructor"
    },
    {
      "anonymous": false,
      "inputs": [
        {
          "indexed": false,
          "name": "upc",
          "type": "uint256"
        }
      ],
      "name": "Harvested",
      "type": "event"
    },
    {
      "anonymous": false,
      "inputs": [
        {
          "indexed": false,
          "name": "upc",
          "type": "uint256"
        }
      ],
      "name": "Processed",
      "type": "event"
    },
    {
      "anonymous": false,
      "inputs": [
        {
          "indexed": false,
          "name": "upc",
          "type": "uint256"
        }
      ],
      "name": "Packed",
      "type": "event"
    },
    {
      "anonymous": false,
      "inputs": [
        {
          "indexed": false,
          "name": "upc",
          "type": "uint256"
        }
      ],
      "name": "ForSale",
      "type": "event"
    },
    {
      "anonymous": false,
      "inputs": [
        {
          "indexed": false,
          "name": "upc",
          "type": "uint256"
        }
      ],
      "name": "Sold",
      "type": "event"
    },
    {
      "anonymous": false,
      "inputs": [
        {
          "indexed": false,
          "name": "upc",
          "type": "uint256"
        }
      ],
      "name": "Shipped",
      "type": "event"
    },
    {
      "anonymous": false,
      "inputs": [
        {
          "indexed": false,
          "name": "upc",
          "type": "uint256"
        }
      ],
      "name": "Received",
      "type": "event"
    },
    {
      "anonymous": false,
      "inputs": [
        {
          "indexed": false,
          "name": "upc",
          "type": "uint256"
        }
      ],
      "name": "Purchased",
      "type": "event"
    },
    {
      "constant": false,
      "inputs": [
        {
          "name": "_upc",
          "type": "uint256"
        },
        {
          "name": "_originFarmerID",
          "type": "address"
        },
        {
          "name": "_originFarmName",
          "type": "string"
        },
        {
          "name": "_originFarmInformation",
          "type": "string"
        },
        {
          "name": "_originFarmLatitude",
          "type": "string"
        },
        {
          "name": "_originFarmLongitude",
          "type": "string"
        },
        {
          "name": "_productNotes",
          "type": "string"
        }
      ],
      "name": "harvestItem",
      "outputs": [],
      "payable": false,
      "stateMutability": "nonpayable",
      "type": "function"
    },
    {
      "constant": false,
      "inputs": [
        {
          "name": "_upc",
          "type": "uint256"
        }
      ],
      "name": "processItem",
      "outputs": [],
      "payable": false,
      "stateMutability": "nonpayable",
      "type": "function"
    },
    {
      "constant": false,
      "inputs": [
        {
          "name": "_upc",
          "type": "uint256"
        }
      ],
      "name": "packItem",
      "outputs": [],
      "payable": false,
      "stateMutability": "nonpayable",
      "type": "function"
    },
    {
      "constant": false,
      "inputs": [
        {
          "name": "_upc",
          "type": "uint256"
        },
        {
          "name": "_price",
          "type": "uint256"
        }
      ],
      "name": "sellItem",
      "outputs": [],
      "payable": false,
      "stateMutability": "nonpayable",
      "type": "function"
    },
    {
      "constant": false,
      "inputs": [
        {
          "name": "_upc",
          "type": "uint256"
        }
      ],
      "name": "buyItem",
      "outputs": [],
      "payable": true,
      "stateMutability": "payable",
      "type": "function"
    },
    {
      "constant": false,
      "inputs": [
        {
          "name": "_upc",
          "type": "uint256"
        }
      ],
      "name": "shipItem",
      "outputs": [],
      "payable": false,
      "stateMutability": "nonpayable",
      "type": "function"
    },
    {
      "constant": false,
      "inputs": [
        {
          "name": "_upc",
          "type": "uint256"
        }
      ],
      "name": "receiveItem",
      "outputs": [],
      "payable": false,
      "stateMutability": "nonpayable",
      "type": "function"
    },
    {
      "constant": false,
      "inputs": [
        {
          "name": "_upc",
          "type": "uint256"
        }
      ],
      "name": "purchaseItem",
      "outputs": [],
      "payable": false,
      "stateMutability": "nonpayable",
      "type": "function"
    },
    {
      "constant": true,
      "inputs": [
        {
          "name": "_upc",
          "type": "uint256"
        }
      ],
      "name": "fetchItemBufferOne",
      "outputs": [
        {
          "name": "itemSKU",
          "type": "uint256"
        },
        {
          "name": "itemUPC",
          "type": "uint256"
        },
        {
          "name": "ownerID",
          "type": "address"
        },
        {
          "name": "originFarmerID",
          "type": "address"
        },
        {
          "name": "originFarmName",
          "type": "string"
        },
        {
          "name": "originFarmInformation",
          "type": "string"
        },
        {
          "name": "originFarmLatitude",
          "type": "string"
        },
        {
          "name": "originFarmLongitude",
          "type": "string"
        }
      ],
      "payable": false,
      "stateMutability": "view",
      "type": "function"
    },
    {
      "constant": true,
      "inputs": [
        {
          "name": "_upc",
          "type": "uint256"
        }
      ],
      "name": "fetchItemBufferTwo",
      "outputs": [
        {
          "name": "itemSKU",
          "type": "uint256"
        },
        {
          "name": "itemUPC",
          "type": "uint256"
        },
        {
          "name": "productID",
          "type": "uint256"
        },
        {
          "name": "productNotes",
          "type": "string"
        },
        {
          "name": "productPrice",
          "type": "uint256"
        },
        {
          "name": "itemState",
          "type": "uint256"
        },
        {
          "name": "distributorID",
          "type": "address"
        },
        {
          "name": "retailerID",
          "type": "address"
        },
        {
          "name": "consumerID",
          "type": "address"
        }
      ],
      "payable": false,
      "stateMutability": "view",
      "type": "function"
    }
  ],
  "bytecode": "0x6080604052336000806101000a81548173ffffffffffffffffffffffffffffffffffffffff021916908373ffffffffffffffffffffffffffffffffffffffff160217905550600160028190555060018081905550611baa806100626000396000f3006080604052600436106100a4576000357c0100000000000000000000000000000000000000000000000000000000900463ffffffff1680632d923561146100a957806349dae766146100e057806366225ff91461010d57806377c459131461026f578063a26be999146104cd578063bdd8a6a8146104fa578063d38ea5bf146106a5578063e7fb74c7146106d2578063f30fc480146106f2578063f61c899a1461071f575b600080fd5b3480156100b557600080fd5b506100de600480360381019080803590602001909291908035906020019092919050505061074c565b005b3480156100ec57600080fd5b5061010b60048036038101908080359060200190929190505050610895565b005b34801561011957600080fd5b50610138600480360381019080803590602001909291905050506109c3565b604051808a8152602001898152602001888152602001806020018781526020018681526020018573ffffffffffffffffffffffffffffffffffffffff1673ffffffffffffffffffffffffffffffffffffffff1681526020018473ffffffffffffffffffffffffffffffffffffffff1673ffffffffffffffffffffffffffffffffffffffff1681526020018373ffffffffffffffffffffffffffffffffffffffff1673ffffffffffffffffffffffffffffffffffffffff168152602001828103825288818151815260200191508051906020019080838360005b8381101561022c578082015181840152602081019050610211565b50505050905090810190601f1680156102595780820380516001836020036101000a031916815260200191505b509a505050505050505050505060405180910390f35b34801561027b57600080fd5b5061029a60048036038101908080359060200190929190505050610bd5565b604051808981526020018881526020018773ffffffffffffffffffffffffffffffffffffffff1673ffffffffffffffffffffffffffffffffffffffff1681526020018673ffffffffffffffffffffffffffffffffffffffff1673ffffffffffffffffffffffffffffffffffffffff16815260200180602001806020018060200180602001858103855289818151815260200191508051906020019080838360005b8381101561035657808201518184015260208101905061033b565b50505050905090810190601f1680156103835780820380516001836020036101000a031916815260200191505b50858103845288818151815260200191508051906020019080838360005b838110156103bc5780820151818401526020810190506103a1565b50505050905090810190601f1680156103e95780820380516001836020036101000a031916815260200191505b50858103835287818151815260200191508051906020019080838360005b83811015610422578082015181840152602081019050610407565b50505050905090810190601f16801561044f5780820380516001836020036101000a031916815260200191505b50858103825286818151815260200191508051906020019080838360005b8381101561048857808201518184015260208101905061046d565b50505050905090810190601f1680156104b55780820380516001836020036101000a031916815260200191505b509c5050505050505050505050505060405180910390f35b3480156104d957600080fd5b506104f860048036038101908080359060200190929190505050610f56565b005b34801561050657600080fd5b506106a360048036038101908080359060200190929190803573ffffffffffffffffffffffffffffffffffffffff169060200190929190803590602001908201803590602001908080601f0160208091040260200160405190810160405280939291908181526020018383808284378201915050505050509192919290803590602001908201803590602001908080601f0160208091040260200160405190810160405280939291908181526020018383808284378201915050505050509192919290803590602001908201803590602001908080601f0160208091040260200160405190810160405280939291908181526020018383808284378201915050505050509192919290803590602001908201803590602001908080601f0160208091040260200160405190810160405280939291908181526020018383808284378201915050505050509192919290803590602001908201803590602001908080601f01602080910402602001604051908101604052809392919081815260200183838082843782019150505050505091929192905050506110bc565b005b3480156106b157600080fd5b506106d060048036038101908080359060200190929190505050611455565b005b6106f0600480360381019080803590602001909291905050506115bb565b005b3480156106fe57600080fd5b5061071d6004803603810190808035906020019092919050505061187d565b005b34801561072b57600080fd5b5061074a600480360381019080803590602001909291905050506119ab565b005b816002600781111561075a57fe5b60036000838152602001908152602001600020600b0160009054906101000a900460ff16600781111561078957fe5b14151561079557600080fd5b6003600084815260200190815260200160002060020160009054906101000a900473ffffffffffffffffffffffffffffffffffffffff168073ffffffffffffffffffffffffffffffffffffffff163373ffffffffffffffffffffffffffffffffffffffff1614151561080657600080fd5b6003806000868152602001908152602001600020600b0160006101000a81548160ff0219169083600781111561083857fe5b02179055508260036000868152602001908152602001600020600a01819055507fa96ae0fc3224ebd79eebfe54bd130cc9cb94416cddd1f2386115e00b72532468846040518082815260200191505060405180910390a150505050565b80600060078111156108a357fe5b60036000838152602001908152602001600020600b0160009054906101000a900460ff1660078111156108d257fe5b1415156108de57600080fd5b6003600083815260200190815260200160002060020160009054906101000a900473ffffffffffffffffffffffffffffffffffffffff168073ffffffffffffffffffffffffffffffffffffffff163373ffffffffffffffffffffffffffffffffffffffff1614151561094f57600080fd5b600160036000858152602001908152602001600020600b0160006101000a81548160ff0219169083600781111561098257fe5b02179055507f5afe3b1bf87069693c075da5c22a98d63d1aef98a30dbbe538d0781a98b77ee5836040518082815260200191505060405180910390a1505050565b600080600060606000806000806000600360008b8152602001908152602001600020600001549850899750600360008b8152602001908152602001600020600801549650600360008b81526020019081526020016000206009018054600181600116156101000203166002900480601f016020809104026020016040519081016040528092919081815260200182805460018160011615610100020316600290048015610ab15780601f10610a8657610100808354040283529160200191610ab1565b820191906000526020600020905b815481529060010190602001808311610a9457829003601f168201915b50505050509550600360008b8152602001908152602001600020600a01549450600360008b8152602001908152602001600020600b0160009054906101000a900460ff166007811115610b0057fe5b9350600360008b8152602001908152602001600020600b0160019054906101000a900473ffffffffffffffffffffffffffffffffffffffff169250600360008b8152602001908152602001600020600c0160009054906101000a900473ffffffffffffffffffffffffffffffffffffffff169150600360008b8152602001908152602001600020600d0160009054906101000a900473ffffffffffffffffffffffffffffffffffffffff1690508888888888888888889850985098509850985098509850985098509193959799909294969850565b600080600080606080606080600360008a8152602001908152602001600020600001549750889650600360008a815260200190815260200160002060020160009054906101000a900473ffffffffffffffffffffffffffffffffffffffff169550600360008a815260200190815260200160002060030160009054906101000a900473ffffffffffffffffffffffffffffffffffffffff169450600360008a81526020019081526020016000206004018054600181600116156101000203166002900480601f016020809104026020016040519081016040528092919081815260200182805460018160011615610100020316600290048015610d195780601f10610cee57610100808354040283529160200191610d19565b820191906000526020600020905b815481529060010190602001808311610cfc57829003601f168201915b50505050509350600360008a81526020019081526020016000206005018054600181600116156101000203166002900480601f016020809104026020016040519081016040528092919081815260200182805460018160011615610100020316600290048015610dca5780601f10610d9f57610100808354040283529160200191610dca565b820191906000526020600020905b815481529060010190602001808311610dad57829003601f168201915b50505050509250600360008a81526020019081526020016000206006018054600181600116156101000203166002900480601f016020809104026020016040519081016040528092919081815260200182805460018160011615610100020316600290048015610e7b5780601f10610e5057610100808354040283529160200191610e7b565b820191906000526020600020905b815481529060010190602001808311610e5e57829003601f168201915b50505050509150600360008a81526020019081526020016000206007018054600181600116156101000203166002900480601f016020809104026020016040519081016040528092919081815260200182805460018160011615610100020316600290048015610f2c5780601f10610f0157610100808354040283529160200191610f2c565b820191906000526020600020905b815481529060010190602001808311610f0f57829003601f168201915b50505050509050878787878787878797509750975097509750975097509750919395975091939597565b8060056007811115610f6457fe5b60036000838152602001908152602001600020600b0160009054906101000a900460ff166007811115610f9357fe5b141515610f9f57600080fd5b600660036000848152602001908152602001600020600b0160006101000a81548160ff02191690836007811115610fd257fe5b0217905550336003600084815260200190815260200160002060020160006101000a81548173ffffffffffffffffffffffffffffffffffffffff021916908373ffffffffffffffffffffffffffffffffffffffff1602179055503360036000848152602001908152602001600020600c0160006101000a81548173ffffffffffffffffffffffffffffffffffffffff021916908373ffffffffffffffffffffffffffffffffffffffff1602179055507fa8142743f8f70a4c26f3691cf4ed59718381fb2f18070ec52be1f1022d855557826040518082815260200191505060405180910390a15050565b6101e06040519081016040528060025481526020018881526020013373ffffffffffffffffffffffffffffffffffffffff1681526020018773ffffffffffffffffffffffffffffffffffffffff168152602001868152602001858152602001848152602001838152602001600154600254018152602001828152602001600081526020016000600781111561114d57fe5b8152602001600073ffffffffffffffffffffffffffffffffffffffff168152602001600073ffffffffffffffffffffffffffffffffffffffff168152602001600073ffffffffffffffffffffffffffffffffffffffff1681525060036000898152602001908152602001600020600082015181600001556020820151816001015560408201518160020160006101000a81548173ffffffffffffffffffffffffffffffffffffffff021916908373ffffffffffffffffffffffffffffffffffffffff16021790555060608201518160030160006101000a81548173ffffffffffffffffffffffffffffffffffffffff021916908373ffffffffffffffffffffffffffffffffffffffff1602179055506080820151816004019080519060200190611278929190611ad9565b5060a0820151816005019080519060200190611295929190611ad9565b5060c08201518160060190805190602001906112b2929190611ad9565b5060e08201518160070190805190602001906112cf929190611ad9565b5061010082015181600801556101208201518160090190805190602001906112f8929190611ad9565b5061014082015181600a015561016082015181600b0160006101000a81548160ff0219169083600781111561132957fe5b021790555061018082015181600b0160016101000a81548173ffffffffffffffffffffffffffffffffffffffff021916908373ffffffffffffffffffffffffffffffffffffffff1602179055506101a082015181600c0160006101000a81548173ffffffffffffffffffffffffffffffffffffffff021916908373ffffffffffffffffffffffffffffffffffffffff1602179055506101c082015181600d0160006101000a81548173ffffffffffffffffffffffffffffffffffffffff021916908373ffffffffffffffffffffffffffffffffffffffff1602179055509050506001600254016002819055507f8e55ccfc9778ff8eba1646d765cf1982537ce0f9257054a17b48aad745250183876040518082815260200191505060405180910390a150505050505050565b806006600781111561146357fe5b60036000838152602001908152602001600020600b0160009054906101000a900460ff16600781111561149257fe5b14151561149e57600080fd5b600760036000848152602001908152602001600020600b0160006101000a81548160ff021916908360078111156114d157fe5b0217905550336003600084815260200190815260200160002060020160006101000a81548173ffffffffffffffffffffffffffffffffffffffff021916908373ffffffffffffffffffffffffffffffffffffffff1602179055503360036000848152602001908152602001600020600d0160006101000a81548173ffffffffffffffffffffffffffffffffffffffff021916908373ffffffffffffffffffffffffffffffffffffffff1602179055507f653d56639fee6b566a5c804764e9689de38645f0b733df89a36a1b7b42173dd8826040518082815260200191505060405180910390a15050565b80600360078111156115c957fe5b60036000838152602001908152602001600020600b0160009054906101000a900460ff1660078111156115f857fe5b14151561160457600080fd5b8160008060036000868152602001908152602001600020600a015480341015151561162e57600080fd5b600460036000888152602001908152602001600020600b0160006101000a81548160ff0219169083600781111561166157fe5b0217905550336003600088815260200190815260200160002060020160006101000a81548173ffffffffffffffffffffffffffffffffffffffff021916908373ffffffffffffffffffffffffffffffffffffffff1602179055503360036000888152602001908152602001600020600b0160016101000a81548173ffffffffffffffffffffffffffffffffffffffff021916908373ffffffffffffffffffffffffffffffffffffffff1602179055506003600087815260200190815260200160002060030160009054906101000a900473ffffffffffffffffffffffffffffffffffffffff1673ffffffffffffffffffffffffffffffffffffffff166108fc60036000898152602001908152602001600020600a01549081150290604051600060405180830381858888f193505050501580156117a2573d6000803e3d6000fd5b507f92f64ca637d023f354075a4be751b169c1a8a9ccb6d33cdd0cb3520543995727866040518082815260200191505060405180910390a15060036000848152602001908152602001600020600a01549150813403905060036000848152602001908152602001600020600d0160009054906101000a900473ffffffffffffffffffffffffffffffffffffffff1673ffffffffffffffffffffffffffffffffffffffff166108fc829081150290604051600060405180830381858888f19350505050158015611875573d6000803e3d6000fd5b505050505050565b806001600781111561188b57fe5b60036000838152602001908152602001600020600b0160009054906101000a900460ff1660078111156118ba57fe5b1415156118c657600080fd5b6003600083815260200190815260200160002060020160009054906101000a900473ffffffffffffffffffffffffffffffffffffffff168073ffffffffffffffffffffffffffffffffffffffff163373ffffffffffffffffffffffffffffffffffffffff1614151561193757600080fd5b600260036000858152602001908152602001600020600b0160006101000a81548160ff0219169083600781111561196a57fe5b02179055507f9b3b66e2380b690bae22c73ef1428fb0c91e72fe14a4b6defa13035214187aff836040518082815260200191505060405180910390a1505050565b80600460078111156119b957fe5b60036000838152602001908152602001600020600b0160009054906101000a900460ff1660078111156119e857fe5b1415156119f457600080fd5b6003600083815260200190815260200160002060020160009054906101000a900473ffffffffffffffffffffffffffffffffffffffff168073ffffffffffffffffffffffffffffffffffffffff163373ffffffffffffffffffffffffffffffffffffffff16141515611a6557600080fd5b600560036000858152602001908152602001600020600b0160006101000a81548160ff02191690836007811115611a9857fe5b02179055507ff00b9a5725b80c54016f42114f6ed7792d22eecb116011c4afac29c57bef6c95836040518082815260200191505060405180910390a1505050565b828054600181600116156101000203166002900490600052602060002090601f016020900481019282601f10611b1a57805160ff1916838001178555611b48565b82800160010185558215611b48579182015b82811115611b47578251825591602001919060010190611b2c565b5b509050611b559190611b59565b5090565b611b7b91905b80821115611b77576000816000905550600101611b5f565b5090565b905600a165627a7a723058209133480bfd762b96972438519aee4a18a105810188b0a9700e2bbd88d841b13e0029",
  "source": "pragma solidity ^0.4.24;\n// Define a contract 'Supplychain'\ncontract SupplyChain {\n\n  // Define 'owner'\n  address owner;\n\n  // Define a variable called 'upc' for Universal Product Code (UPC)\n  uint  upc;\n\n  // Define a variable called 'sku' for Stock Keeping Unit (SKU)\n  uint  sku;\n\n  // Define a public mapping 'items' that maps the UPC to an Item.\n  mapping (uint => Item) items;\n\n  // Define a public mapping 'itemsHistory' that maps the UPC to an array of TxHash,\n  // that track its journey through the supply chain -- to be sent from DApp.\n  mapping (uint => string[]) itemsHistory;\n\n  // Define enum 'State' with the following values:\n  enum State\n  {\n    Harvested,  // 0\n    Processed,  // 1\n    Packed,     // 2\n    ForSale,    // 3\n    Sold,       // 4\n    Shipped,    // 5\n    Received,   // 6\n    Purchased   // 7\n    }\n\n  State constant defaultState = State.Harvested;\n\n  // Define a struct 'Item' with the following fields:\n  struct Item {\n    uint    sku;  // Stock Keeping Unit (SKU)\n    uint    upc; // Universal Product Code (UPC), generated by the Farmer, goes on the package, can be verified by the Consumer\n    address ownerID;  // Metamask-Ethereum address of the current owner as the product moves through 8 stages\n    address originFarmerID; // Metamask-Ethereum address of the Farmer\n    string  originFarmName; // Farmer Name\n    string  originFarmInformation;  // Farmer Information\n    string  originFarmLatitude; // Farm Latitude\n    string  originFarmLongitude;  // Farm Longitude\n    uint    productID;  // Product ID potentially a combination of upc + sku\n    string  productNotes; // Product Notes\n    uint    productPrice; // Product Price\n    State   itemState;  // Product State as represented in the enum above\n    address distributorID;  // Metamask-Ethereum address of the Distributor\n    address retailerID; // Metamask-Ethereum address of the Retailer\n    address consumerID; // Metamask-Ethereum address of the Consumer\n  }\n\n  // Define 8 events with the same 8 state values and accept 'upc' as input argument\n  event Harvested(uint upc);\n  event Processed(uint upc);\n  event Packed(uint upc);\n  event ForSale(uint upc);\n  event Sold(uint upc);\n  event Shipped(uint upc);\n  event Received(uint upc);\n  event Purchased(uint upc);\n\n  // Define a modifer that checks to see if msg.sender == owner of the contract\n  modifier onlyOwner() {\n    require(msg.sender == owner);\n    _;\n  }\n\n  // Define a modifer that verifies the Caller\n  modifier verifyCaller (address _address) {\n    require(msg.sender == _address);\n    _;\n  }\n\n  // Define a modifier that checks if the paid amount is sufficient to cover the price\n  modifier paidEnough(uint _price) {\n    require(msg.value >= _price);\n    _;\n  }\n\n  // Define a modifier that checks the price and refunds the remaining balance\n  modifier checkValue(uint _upc) {\n    _;\n    uint _price = items[_upc].productPrice;\n    uint amountToReturn = msg.value - _price;\n    items[_upc].consumerID.transfer(amountToReturn);\n  }\n\n  // Define a modifier that checks if an item.state of a upc is Harvested\n  modifier harvested(uint _upc) {\n    require(items[_upc].itemState == State.Harvested);\n    _;\n  }\n\n  // Define a modifier that checks if an item.state of a upc is Processed\n  modifier processed(uint _upc) {\n    require(items[_upc].itemState == State.Processed);\n    _;\n  }\n\n  // Define a modifier that checks if an item.state of a upc is Packed\n  modifier packed(uint _upc) {\n    require(items[_upc].itemState == State.Packed);\n    _;\n  }\n\n  // Define a modifier that checks if an item.state of a upc is ForSale\n  modifier forSale(uint _upc) {\n    require(items[_upc].itemState == State.ForSale);\n    _;\n  }\n\n  // Define a modifier that checks if an item.state of a upc is Sold\n  modifier sold(uint _upc) {\n    require(items[_upc].itemState == State.Sold);\n    _;\n  }\n\n  // Define a modifier that checks if an item.state of a upc is Shipped\n  modifier shipped(uint _upc) {\n    require(items[_upc].itemState == State.Shipped);\n    _;\n  }\n\n  // Define a modifier that checks if an item.state of a upc is Received\n  modifier received(uint _upc) {\n    require(items[_upc].itemState == State.Received);\n  _;\n  }\n\n  // Define a modifier that checks if an item.state of a upc is Purchased\n  modifier purchased(uint _upc) {\n    require(items[_upc].itemState == State.Purchased);\n  _;\n  }\n\n  // In the constructor set 'owner' to the address that instantiated the contract\n  // and set 'sku' to 1\n  // and set 'upc' to 1\n  constructor() public payable {\n    owner = msg.sender;\n    sku = 1;\n    upc = 1;\n  }\n\n  // Define a function 'kill' if required\n//  function kill() public {\n//    if (msg.sender == owner) {\n//      selfdestruct(owner);\n//    }\n//  }\n\n  // Define a function 'harvestItem' that allows a farmer to mark an item 'Harvested'\n  function harvestItem(uint _upc, address _originFarmerID, string _originFarmName, string _originFarmInformation, string  _originFarmLatitude, string  _originFarmLongitude, string  _productNotes) public\n  {\n    // Add the new item as part of Harvest\n    items[_upc] = Item({\n    sku: sku,\n    upc: _upc,\n    ownerID: msg.sender,\n    originFarmerID: _originFarmerID,\n    originFarmName: _originFarmName,\n    originFarmInformation: _originFarmInformation,\n    originFarmLatitude: _originFarmLatitude,\n    originFarmLongitude: _originFarmLongitude,\n    productID: sku + upc,\n    productNotes: _productNotes,\n    itemState: State.Harvested,\n    productPrice:0,\n    distributorID: address(0),\n    retailerID: address(0),\n    consumerID: address(0)\n    });\n    // Increment sku\n    sku = sku + 1;\n    // Emit the appropriate event\n    emit Harvested(_upc);\n  }\n\n  // Define a function 'processItem' that allows a farmer to mark an item 'Processed'\n  function processItem(uint _upc) harvested(_upc) verifyCaller(items[_upc].ownerID) public\n  // Call modifier to check if upc has passed previous supply chain stage\n  // Call modifier to verify caller of this function\n  {\n    // Update the appropriate fields\n    items[_upc].itemState = State.Processed;\n    // Emit the appropriate event\n    emit Processed(_upc);\n  }\n\n  // Define a function 'packItem' that allows a farmer to mark an item 'Packed'\n  function packItem(uint _upc) processed(_upc) verifyCaller(items[_upc].ownerID) public\n  // Call modifier to check if upc has passed previous supply chain stage\n  // Call modifier to verify caller of this function\n  {\n    // Update the appropriate fields\n    items[_upc].itemState = State.Packed;\n    // Emit the appropriate event\n    emit Packed(_upc);\n  }\n\n  // Define a function 'sellItem' that allows a farmer to mark an item 'ForSale'\n  function sellItem(uint _upc, uint _price) packed(_upc) verifyCaller(items[_upc].ownerID) public\n  // Call modifier to check if upc has passed previous supply chain stage\n  // Call modifier to verify caller of this function\n  {\n    // Update the appropriate fields\n    items[_upc].itemState = State.ForSale;\n    items[_upc].productPrice = _price;\n    // Emit the appropriate event\n    emit ForSale(_upc);\n  }\n\n  // Define a function 'buyItem' that allows the disributor to mark an item 'Sold'\n  // Use the above defined modifiers to check if the item is available for sale, if the buyer has paid enough,\n  // and any excess ether sent is refunded back to the buyer\n  function buyItem(uint _upc) forSale(_upc) checkValue(_upc) paidEnough(items[_upc].productPrice)  public payable\n    // Call modifier to check if upc has passed previous supply chain stage\n    // Call modifer to check if buyer has paid enough\n    // Call modifer to send any excess ether back to buyer\n    {\n\n    // Update the appropriate fields - ownerID, distributorID, itemState\n      items[_upc].itemState = State.Sold;\n      items[_upc].ownerID = msg.sender;\n      items[_upc].distributorID = msg.sender;\n      // Transfer money to farmer\n      items[_upc].originFarmerID.transfer(items[_upc].productPrice);\n\n      // emit the appropriate event\n      emit Sold(_upc);\n  }\n\n  // Define a function 'shipItem' that allows the distributor to mark an item 'Shipped'\n  // Use the above modifers to check if the item is sold\n  function shipItem(uint _upc) sold(_upc) verifyCaller(items[_upc].ownerID) public\n    // Call modifier to check if upc has passed previous supply chain stage\n    // Call modifier to verify caller of this function\n    {\n    // Update the appropriate fields\n      items[_upc].itemState = State.Shipped;\n    // Emit the appropriate event\n      emit Shipped(_upc);\n  }\n\n  // Define a function 'receiveItem' that allows the retailer to mark an item 'Received'\n  // Use the above modifiers to check if the item is shipped\n  function receiveItem(uint _upc) shipped(_upc) public\n    // Call modifier to check if upc has passed previous supply chain stage\n    // Access Control List enforced by calling Smart Contract / DApp\n    {\n    // Update the appropriate fields - ownerID, retailerID, itemState\n    items[_upc].itemState = State.Received;\n    items[_upc].ownerID = msg.sender;\n    items[_upc].retailerID = msg.sender;\n    // Emit the appropriate event\n    emit Received(_upc);\n  }\n\n  // Define a function 'purchaseItem' that allows the consumer to mark an item 'Purchased'\n  // Use the above modifiers to check if the item is received\n  function purchaseItem(uint _upc) received(_upc) public\n    // Call modifier to check if upc has passed previous supply chain stage\n\n    // Access Control List enforced by calling Smart Contract / DApp\n    {\n    // Update the appropriate fields - ownerID, consumerID, itemState\n    items[_upc].itemState = State.Purchased;\n    items[_upc].ownerID = msg.sender;\n    items[_upc].consumerID = msg.sender;\n    // Emit the appropriate event\n    emit Purchased(_upc);\n  }\n\n  // Define a function 'fetchItemBufferOne' that fetches the data\n  function fetchItemBufferOne(uint _upc) public view returns\n  (\n  uint    itemSKU,\n  uint    itemUPC,\n  address ownerID,\n  address originFarmerID,\n  string  originFarmName,\n  string  originFarmInformation,\n  string  originFarmLatitude,\n  string  originFarmLongitude\n  )\n  {\n  // Assign values to the 8 parameters\n    itemSKU = items[_upc].sku;\n    itemUPC = _upc;\n    ownerID = items[_upc].ownerID;\n    originFarmerID = items[_upc].originFarmerID;\n    originFarmName = items[_upc].originFarmName;\n    originFarmInformation = items[_upc].originFarmInformation;\n    originFarmLatitude = items[_upc].originFarmLatitude;\n    originFarmLongitude = items[_upc].originFarmLongitude;\n\n  return\n  (\n  itemSKU,\n  itemUPC,\n  ownerID,\n  originFarmerID,\n  originFarmName,\n  originFarmInformation,\n  originFarmLatitude,\n  originFarmLongitude\n  );\n  }\n\n  // Define a function 'fetchItemBufferTwo' that fetches the data\n  function fetchItemBufferTwo(uint _upc) public view returns\n  (\n  uint    itemSKU,\n  uint    itemUPC,\n  uint    productID,\n  string  productNotes,\n  uint    productPrice,\n  uint    itemState,\n  address distributorID,\n  address retailerID,\n  address consumerID\n  )\n  {\n    // Assign values to the 9 parameters\n    itemSKU = items[_upc].sku;\n    itemUPC = _upc;\n    productID = items[_upc].productID;\n    productNotes = items[_upc].productNotes;\n    productPrice = items[_upc].productPrice;\n    itemState = uint(items[_upc].itemState);\n    distributorID = items[_upc].distributorID;\n    retailerID = items[_upc].retailerID;\n    consumerID = items[_upc].consumerID;\n\n  return\n  (\n  itemSKU,\n  itemUPC,\n  productID,\n  productNotes,\n  productPrice,\n  itemState,\n  distributorID,\n  retailerID,\n  consumerID\n  );\n  }\n}\n",
  "sourcePath": "/Users/mclark/repo/nd1309-Project-6b-Example-Template/project-6/contracts/coffeebase/SupplyChain.sol",
  "compiler": {
    "name": "solc",
    "version": "0.4.24+commit.e67f0147.Emscripten.clang"
  },
  "schemaVersion": "2.0.1",
  "updatedAt": "2022-04-16T17:49:04.620Z"
}